{
  "contractName": "StudentListStorage",
  "abi": [
    {
      "inputs": [
        {
          "internalType": "uint256",
          "name": "",
          "type": "uint256"
        }
      ],
      "name": "StudentList",
      "outputs": [
        {
          "internalType": "uint256",
          "name": "id",
          "type": "uint256"
        },
        {
          "internalType": "string",
          "name": "name",
          "type": "string"
        },
        {
          "internalType": "uint256",
          "name": "age",
          "type": "uint256"
        }
      ],
      "stateMutability": "view",
      "type": "function",
      "constant": true
    },
    {
      "inputs": [
        {
          "internalType": "string",
          "name": "_name",
          "type": "string"
        },
        {
          "internalType": "uint256",
          "name": "_age",
          "type": "uint256"
        }
      ],
      "name": "addList",
      "outputs": [
        {
          "internalType": "uint256",
          "name": "",
          "type": "uint256"
        }
      ],
      "stateMutability": "nonpayable",
      "type": "function"
    },
    {
      "inputs": [],
      "name": "getList",
      "outputs": [
        {
          "components": [
            {
              "internalType": "uint256",
              "name": "id",
              "type": "uint256"
            },
            {
              "internalType": "string",
              "name": "name",
              "type": "string"
            },
            {
              "internalType": "uint256",
              "name": "age",
              "type": "uint256"
            }
          ],
          "internalType": "struct StudentListStorage.Student[]",
          "name": "",
          "type": "tuple[]"
        }
      ],
      "stateMutability": "view",
      "type": "function",
      "constant": true
    }
  ],
  "bytecode": "0x608060405234801561001057600080fd5b50610b57806100206000396000f3fe608060405234801561001057600080fd5b506004361061005e576000357c0100000000000000000000000000000000000000000000000000000000900480636b29d35f14610063578063942b765a1461009357806395bbc64e146100b1575b600080fd5b61007d600480360381019061007891906104dd565b6100e3565b60405161008a9190610548565b60405180910390f35b61009b610181565b6040516100a89190610703565b60405180910390f35b6100cb60048036038101906100c69190610725565b61028b565b6040516100da9392919061079c565b60405180910390f35b600080600080549050905060006001826100fd9190610809565b9050600060405180606001604052808381526020018781526020018681525090806001815401808255809150506001900390600052602060002090600302016000909190919091506000820151816000015560208201518160010190816101649190610a4f565b506040820151816002015550506000805490509250505092915050565b6060600080805480602002602001604051908101604052809291908181526020016000905b8282101561027e5783829060005260206000209060030201604051806060016040529081600082015481526020016001820180546101e39061086c565b80601f016020809104026020016040519081016040528092919081815260200182805461020f9061086c565b801561025c5780601f106102315761010080835404028352916020019161025c565b820191906000526020600020905b81548152906001019060200180831161023f57829003601f168201915b50505050508152602001600282015481525050815260200190600101906101a6565b5050505090508091505090565b6000818154811061029b57600080fd5b90600052602060002090600302016000915090508060000154908060010180546102c49061086c565b80601f01602080910402602001604051908101604052809291908181526020018280546102f09061086c565b801561033d5780601f106103125761010080835404028352916020019161033d565b820191906000526020600020905b81548152906001019060200180831161032057829003601f168201915b5050505050908060020154905083565b6000604051905090565b600080fd5b600080fd5b600080fd5b600080fd5b6000601f19601f8301169050919050565b7f4e487b7100000000000000000000000000000000000000000000000000000000600052604160045260246000fd5b6103b48261036b565b810181811067ffffffffffffffff821117156103d3576103d261037c565b5b80604052505050565b60006103e661034d565b90506103f282826103ab565b919050565b600067ffffffffffffffff8211156104125761041161037c565b5b61041b8261036b565b9050602081019050919050565b82818337600083830152505050565b600061044a610445846103f7565b6103dc565b90508281526020810184848401111561046657610465610366565b5b610471848285610428565b509392505050565b600082601f83011261048e5761048d610361565b5b813561049e848260208601610437565b91505092915050565b6000819050919050565b6104ba816104a7565b81146104c557600080fd5b50565b6000813590506104d7816104b1565b92915050565b600080604083850312156104f4576104f3610357565b5b600083013567ffffffffffffffff8111156105125761051161035c565b5b61051e85828601610479565b925050602061052f858286016104c8565b9150509250929050565b610542816104a7565b82525050565b600060208201905061055d6000830184610539565b92915050565b600081519050919050565b600082825260208201905092915050565b6000819050602082019050919050565b610598816104a7565b82525050565b600081519050919050565b600082825260208201905092915050565b60005b838110156105d85780820151818401526020810190506105bd565b60008484015250505050565b60006105ef8261059e565b6105f981856105a9565b93506106098185602086016105ba565b6106128161036b565b840191505092915050565b6000606083016000830151610635600086018261058f565b506020830151848203602086015261064d82826105e4565b9150506040830151610662604086018261058f565b508091505092915050565b6000610679838361061d565b905092915050565b6000602082019050919050565b600061069982610563565b6106a3818561056e565b9350836020820285016106b58561057f565b8060005b858110156106f157848403895281516106d2858261066d565b94506106dd83610681565b925060208a019950506001810190506106b9565b50829750879550505050505092915050565b6000602082019050818103600083015261071d818461068e565b905092915050565b60006020828403121561073b5761073a610357565b5b6000610749848285016104c8565b91505092915050565b600082825260208201905092915050565b600061076e8261059e565b6107788185610752565b93506107888185602086016105ba565b6107918161036b565b840191505092915050565b60006060820190506107b16000830186610539565b81810360208301526107c38185610763565b90506107d26040830184610539565b949350505050565b7f4e487b7100000000000000000000000000000000000000000000000000000000600052601160045260246000fd5b6000610814826104a7565b915061081f836104a7565b9250828201905080821115610837576108366107da565b5b92915050565b7f4e487b7100000000000000000000000000000000000000000000000000000000600052602260045260246000fd5b6000600282049050600182168061088457607f821691505b6020821081036108975761089661083d565b5b50919050565b60008190508160005260206000209050919050565b60006020601f8301049050919050565b60008160020a8302905092915050565b6000600883026109027fffffffffffffffffffffffffffffffffffffffffffffffffffffffffffffffff826108c2565b61090c86836108c2565b95508019841693508086168417925050509392505050565b6000819050919050565b600061094961094461093f846104a7565b610924565b6104a7565b9050919050565b6000819050919050565b6109638361092e565b61097761096f82610950565b8484546108d2565b825550505050565b600090565b61098c61097f565b61099781848461095a565b505050565b5b818110156109bb576109b0600082610984565b60018101905061099d565b5050565b601f821115610a00576109d18161089d565b6109da846108b2565b810160208510156109e9578190505b6109fd6109f5856108b2565b83018261099c565b50505b505050565b60008160020a8304905092915050565b6000610a2660001984600802610a05565b1980831691505092915050565b6000610a3f8383610a15565b9150826002028217905092915050565b610a588261059e565b67ffffffffffffffff811115610a7157610a7061037c565b5b610a7b825461086c565b610a868282856109bf565b600060209050601f831160018114610ab95760008415610aa7578287015190505b610ab18582610a33565b865550610b19565b601f198416610ac78661089d565b60005b82811015610aef57848901518255600182019150602085019450602081019050610aca565b86831015610b0c5784890151610b08601f891682610a15565b8355505b6001600288020188555050505b50505050505056fea2646970667358221220ee97488f103ca3d1d5669159ddfb63fb6ba952f4b51bc4a4da000e18151b6ddd64736f6c63430008150033",
  "immutableReferences": {},
  "source": "// SPDX-License-Identifier: MIT\r\npragma solidity ^0.8.21;\r\n\r\ncontract StudentListStorage {\r\n    // \r\n    struct  Student {\r\n        uint id;\r\n        string name;\r\n        uint age;\r\n    }\r\n    // \r\n    Student[] public StudentList;\r\n\r\n     function addList(string memory _name, uint _age) public returns (uint) {\r\n        uint count = StudentList.length;\r\n        uint index = count + 1;\r\n        StudentList.push(Student(index, _name, _age));\r\n        return StudentList.length;\r\n    }\r\n\r\n    function getList() public view  returns (Student[] memory) {\r\n        Student[]  memory list = StudentList;\r\n        return list;\r\n    }\r\n}",
  "sourcePath": "D:\\Project\\wallet\\web3-demo-code\\contracts\\StudentListStorage.sol",
  "compiler": {
    "name": "solc",
    "version": "0.8.21+commit.d9974bed.Emscripten.clang"
  },
  "schemaVersion": "3.4.16",
  "updatedAt": "2024-05-27T13:32:34.383Z",
  "networkType": "ethereum",
  "devdoc": {
    "kind": "dev",
    "methods": {},
    "version": 1
  },
  "userdoc": {
    "kind": "user",
    "methods": {},
    "version": 1
  }
}