{
  "contractName": "StudentListStorage",
  "abi": [
    {
      "inputs": [
        {
          "internalType": "uint256",
          "name": "",
          "type": "uint256"
        }
      ],
      "name": "StudentList",
      "outputs": [
        {
          "internalType": "uint256",
          "name": "id",
          "type": "uint256"
        },
        {
          "internalType": "string",
          "name": "name",
          "type": "string"
        },
        {
          "internalType": "uint256",
          "name": "age",
          "type": "uint256"
        },
        {
          "internalType": "address",
          "name": "account",
          "type": "address"
        }
      ],
      "stateMutability": "view",
      "type": "function",
      "constant": true
    },
    {
      "inputs": [
        {
          "internalType": "string",
          "name": "_name",
          "type": "string"
        },
        {
          "internalType": "uint256",
          "name": "_age",
          "type": "uint256"
        }
      ],
      "name": "addList",
      "outputs": [
        {
          "internalType": "uint256",
          "name": "",
          "type": "uint256"
        }
      ],
      "stateMutability": "nonpayable",
      "type": "function"
    },
    {
      "inputs": [],
      "name": "getList",
      "outputs": [
        {
          "components": [
            {
              "internalType": "uint256",
              "name": "id",
              "type": "uint256"
            },
            {
              "internalType": "string",
              "name": "name",
              "type": "string"
            },
            {
              "internalType": "uint256",
              "name": "age",
              "type": "uint256"
            },
            {
              "internalType": "address",
              "name": "account",
              "type": "address"
            }
          ],
          "internalType": "struct StudentListStorage.Student[]",
          "name": "",
          "type": "tuple[]"
        }
      ],
      "stateMutability": "view",
      "type": "function",
      "constant": true
    }
  ],
  "bytecode": "0x608060405234801561001057600080fd5b506109b8806100206000396000f3fe608060405234801561001057600080fd5b506004361061005e576000357c0100000000000000000000000000000000000000000000000000000000900480636b29d35f14610063578063942b765a1461009357806395bbc64e146100b1575b600080fd5b61007d60048036038101906100789190610573565b6100e4565b60405161008a91906107ac565b60405180910390f35b61009b6101e3565b6040516100a8919061078a565b60405180910390f35b6100cb60048036038101906100c691906105c7565b610353565b6040516100db94939291906107c7565b60405180910390f35b60008060008054905090506000600182019050600060405180608001604052808381526020018781526020018681526020013373ffffffffffffffffffffffffffffffffffffffff16815250908060018154018082558091505060019003906000526020600020906004020160009091909190915060008201518160000155602082015181600101908051906020019061017f92919061044b565b506040820151816002015560608201518160030160006101000a81548173ffffffffffffffffffffffffffffffffffffffff021916908373ffffffffffffffffffffffffffffffffffffffff16021790555050506000805490509250505092915050565b6060600080805480602002602001604051908101604052809291908181526020016000905b82821015610346578382906000526020600020906004020160405180608001604052908160008201548152602001600182018054600181600116156101000203166002900480601f0160208091040260200160405190810160405280929190818152602001828054600181600116156101000203166002900480156102ce5780601f106102a3576101008083540402835291602001916102ce565b820191906000526020600020905b8154815290600101906020018083116102b157829003601f168201915b50505050508152602001600282015481526020016003820160009054906101000a900473ffffffffffffffffffffffffffffffffffffffff1673ffffffffffffffffffffffffffffffffffffffff1673ffffffffffffffffffffffffffffffffffffffff168152505081526020019060010190610208565b5050505090508091505090565b6000818154811061036357600080fd5b9060005260206000209060040201600091509050806000015490806001018054600181600116156101000203166002900480601f0160208091040260200160405190810160405280929190818152602001828054600181600116156101000203166002900480156104155780601f106103ea57610100808354040283529160200191610415565b820191906000526020600020905b8154815290600101906020018083116103f857829003601f168201915b5050505050908060020154908060030160009054906101000a900473ffffffffffffffffffffffffffffffffffffffff16905084565b828054600181600116156101000203166002900490600052602060002090601f01602090048101928261048157600085556104c8565b82601f1061049a57805160ff19168380011785556104c8565b828001600101855582156104c8579182015b828111156104c75782518255916020019190600101906104ac565b5b5090506104d591906104d9565b5090565b5b808211156104f25760008160009055506001016104da565b5090565b600061050961050484610844565b610813565b90508281526020810184848401111561052157600080fd5b61052c848285610916565b509392505050565b600082601f83011261054557600080fd5b81356105558482602086016104f6565b91505092915050565b60008135905061056d8161096b565b92915050565b6000806040838503121561058657600080fd5b600083013567ffffffffffffffff8111156105a057600080fd5b6105ac85828601610534565b92505060206105bd8582860161055e565b9150509250929050565b6000602082840312156105d957600080fd5b60006105e78482850161055e565b91505092915050565b60006105fc8383610709565b905092915050565b61060d816108da565b82525050565b61061c816108da565b82525050565b600061062d82610884565b61063781856108a7565b93508360208202850161064985610874565b8060005b85811015610685578484038952815161066685826105f0565b94506106718361089a565b925060208a0199505060018101905061064d565b50829750879550505050505092915050565b60006106a28261088f565b6106ac81856108b8565b93506106bc818560208601610925565b6106c58161095a565b840191505092915050565b60006106db8261088f565b6106e581856108c9565b93506106f5818560208601610925565b6106fe8161095a565b840191505092915050565b6000608083016000830151610721600086018261076c565b50602083015184820360208601526107398282610697565b915050604083015161074e604086018261076c565b5060608301516107616060860182610604565b508091505092915050565b6107758161090c565b82525050565b6107848161090c565b82525050565b600060208201905081810360008301526107a48184610622565b905092915050565b60006020820190506107c1600083018461077b565b92915050565b60006080820190506107dc600083018761077b565b81810360208301526107ee81866106d0565b90506107fd604083018561077b565b61080a6060830184610613565b95945050505050565b6000604051905081810181811067ffffffffffffffff8211171561083a57610839610958565b5b8060405250919050565b600067ffffffffffffffff82111561085f5761085e610958565b5b601f19601f8301169050602081019050919050565b6000819050602082019050919050565b600081519050919050565b600081519050919050565b6000602082019050919050565b600082825260208201905092915050565b600082825260208201905092915050565b600082825260208201905092915050565b60006108e5826108ec565b9050919050565b600073ffffffffffffffffffffffffffffffffffffffff82169050919050565b6000819050919050565b82818337600083830152505050565b60005b83811015610943578082015181840152602081019050610928565b83811115610952576000848401525b50505050565bfe5b6000601f19601f8301169050919050565b6109748161090c565b811461097f57600080fd5b5056fea26469706673582212203a863347115bc3d8b74815a4800943b7b3bed416a1325ef69ae59e6c44bfe18064736f6c63430007060033",
  "immutableReferences": {},
  "source": "// SPDX-License-Identifier: MIT\r\npragma solidity >=0.6.0 <0.8.0;\r\npragma experimental ABIEncoderV2;\r\n\r\ncontract StudentListStorage {\r\n    // \r\n    struct  Student {\r\n        uint id;\r\n        string name;\r\n        uint age;\r\n        address account;\r\n    }\r\n    // \r\n    Student[] public StudentList;\r\n\r\n     function addList(string memory _name, uint _age) public returns (uint) {\r\n        uint count = StudentList.length;\r\n        uint index = count + 1;\r\n        StudentList.push(Student(index, _name, _age, msg.sender));\r\n        return StudentList.length;\r\n    }\r\n\r\n    function getList() public view  returns (Student[] memory) {\r\n        Student[]  memory list = StudentList;\r\n        return list;\r\n    }\r\n}",
  "sourcePath": "D:\\Project\\wallet\\web3-demo-code\\contracts\\StudentListStorage.sol",
  "compiler": {
    "name": "solc",
    "version": "0.7.6+commit.7338295f.Emscripten.clang"
  },
  "schemaVersion": "3.4.16",
  "updatedAt": "2024-05-28T07:42:07.839Z",
  "networkType": "ethereum",
  "devdoc": {
    "kind": "dev",
    "methods": {},
    "version": 1
  },
  "userdoc": {
    "kind": "user",
    "methods": {},
    "version": 1
  }
}