{
  "contractName": "StudentStorage",
  "abi": [
    {
      "inputs": [
        {
          "internalType": "string",
          "name": "_name",
          "type": "string"
        },
        {
          "internalType": "uint256",
          "name": "_age",
          "type": "uint256"
        }
      ],
      "name": "setData",
      "outputs": [],
      "stateMutability": "nonpayable",
      "type": "function"
    },
    {
      "inputs": [],
      "name": "getData",
      "outputs": [
        {
          "internalType": "string",
          "name": "",
          "type": "string"
        },
        {
          "internalType": "uint256",
          "name": "",
          "type": "uint256"
        }
      ],
      "stateMutability": "view",
      "type": "function",
      "constant": true
    }
  ],
  "bytecode": "0x608060405234801561001057600080fd5b50610674806100206000396000f3fe608060405234801561001057600080fd5b5060043610610053576000357c0100000000000000000000000000000000000000000000000000000000900480633bc5de3014610058578063af22068e14610077575b600080fd5b610060610093565b60405161006e9291906101f7565b60405180910390f35b610091600480360381019061008c91906102c2565b610130565b005b6060600060016000548180546100a890610351565b80601f01602080910402602001604051908101604052809291908181526020018280546100d490610351565b80156101215780601f106100f657610100808354040283529160200191610121565b820191906000526020600020905b81548152906001019060200180831161010457829003601f168201915b50505050509150915091509091565b82826001918261014192919061056e565b5080600081905550505050565b600081519050919050565b600082825260208201905092915050565b60005b8381101561018857808201518184015260208101905061016d565b60008484015250505050565b6000601f19601f8301169050919050565b60006101b08261014e565b6101ba8185610159565b93506101ca81856020860161016a565b6101d381610194565b840191505092915050565b6000819050919050565b6101f1816101de565b82525050565b6000604082019050818103600083015261021181856101a5565b905061022060208301846101e8565b9392505050565b600080fd5b600080fd5b600080fd5b600080fd5b600080fd5b60008083601f84011261025657610255610231565b5b8235905067ffffffffffffffff81111561027357610272610236565b5b60208301915083600182028301111561028f5761028e61023b565b5b9250929050565b61029f816101de565b81146102aa57600080fd5b50565b6000813590506102bc81610296565b92915050565b6000806000604084860312156102db576102da610227565b5b600084013567ffffffffffffffff8111156102f9576102f861022c565b5b61030586828701610240565b93509350506020610318868287016102ad565b9150509250925092565b7f4e487b7100000000000000000000000000000000000000000000000000000000600052602260045260246000fd5b6000600282049050600182168061036957607f821691505b60208210810361037c5761037b610322565b5b50919050565b600082905092915050565b7f4e487b7100000000000000000000000000000000000000000000000000000000600052604160045260246000fd5b60008190508160005260206000209050919050565b60006020601f8301049050919050565b60008160020a8302905092915050565b6000600883026104217fffffffffffffffffffffffffffffffffffffffffffffffffffffffffffffffff826103e1565b61042b86836103e1565b95508019841693508086168417925050509392505050565b6000819050919050565b600061046861046361045e846101de565b610443565b6101de565b9050919050565b6000819050919050565b6104828361044d565b61049661048e8261046f565b8484546103f1565b825550505050565b600090565b6104ab61049e565b6104b6818484610479565b505050565b5b818110156104da576104cf6000826104a3565b6001810190506104bc565b5050565b601f82111561051f576104f0816103bc565b6104f9846103d1565b81016020851015610508578190505b61051c610514856103d1565b8301826104bb565b50505b505050565b60008160020a8304905092915050565b600061054560001984600802610524565b1980831691505092915050565b600061055e8383610534565b9150826002028217905092915050565b6105788383610382565b67ffffffffffffffff8111156105915761059061038d565b5b61059b8254610351565b6105a68282856104de565b6000601f8311600181146105d557600084156105c3578287013590505b6105cd8582610552565b865550610635565b601f1984166105e3866103bc565b60005b8281101561060b578489013582556001820191506020850194506020810190506105e6565b868310156106285784890135610624601f891682610534565b8355505b6001600288020188555050505b5050505050505056fea264697066735822122006212e8d6a537da073d75cb6a0c638a29bf578731b3c993c480dc0c3b5d5e4e664736f6c63430008150033",
  "immutableReferences": {},
  "source": "// SPDX-License-Identifier: MIT\r\npragma solidity ^0.8.21;\r\n\r\ncontract StudentStorage {\r\n    //  username + age\r\n    uint age;\r\n    string username;\r\n    \r\n    // storage    \r\n    // memory  \r\n    // calldata  memorycalldata\r\n    // \r\n     function setData(string calldata _name, uint _age) public {\r\n        username = _name;\r\n        age = _age;\r\n    }\r\n\r\n    // view  \r\n    // pure   \r\n    function getData() public view returns (string memory, uint) {\r\n        return (username, age);\r\n    }\r\n}",
  "sourcePath": "D:\\Project\\wallet\\web3-demo-code\\contracts\\StudentStorage.sol",
  "compiler": {
    "name": "solc",
    "version": "0.8.21+commit.d9974bed.Emscripten.clang"
  },
  "schemaVersion": "3.4.16",
  "updatedAt": "2024-05-27T13:32:34.270Z",
  "networkType": "ethereum",
  "devdoc": {
    "kind": "dev",
    "methods": {},
    "version": 1
  },
  "userdoc": {
    "kind": "user",
    "methods": {},
    "version": 1
  }
}