{
  "contractName": "StudentStorage",
  "abi": [
    {
      "inputs": [
        {
          "internalType": "string",
          "name": "_name",
          "type": "string"
        },
        {
          "internalType": "uint256",
          "name": "_age",
          "type": "uint256"
        }
      ],
      "name": "setData",
      "outputs": [],
      "stateMutability": "nonpayable",
      "type": "function"
    },
    {
      "inputs": [],
      "name": "getData",
      "outputs": [
        {
          "internalType": "string",
          "name": "",
          "type": "string"
        },
        {
          "internalType": "uint256",
          "name": "",
          "type": "uint256"
        }
      ],
      "stateMutability": "view",
      "type": "function",
      "constant": true
    }
  ],
  "bytecode": "0x608060405234801561001057600080fd5b50610311806100206000396000f3fe608060405234801561001057600080fd5b5060043610610053576000357c0100000000000000000000000000000000000000000000000000000000900480633bc5de3014610058578063af22068e146100e2575b600080fd5b610060610165565b6040518080602001838152602001828103825284818151815260200191508051906020019080838360005b838110156100a657808201518184015260208101905061008b565b50505050905090810190601f1680156100d35780820380516001836020036101000a031916815260200191505b50935050505060405180910390f35b610163600480360360408110156100f857600080fd5b810190808035906020019064010000000081111561011557600080fd5b82018360208201111561012757600080fd5b8035906020019184600183028401116401000000008311171561014957600080fd5b909192939192939080359060200190929190505050610212565b005b606060006001600054818054600181600116156101000203166002900480601f0160208091040260200160405190810160405280929190818152602001828054600181600116156101000203166002900480156102035780601f106101d857610100808354040283529160200191610203565b820191906000526020600020905b8154815290600101906020018083116101e657829003601f168201915b50505050509150915091509091565b828260019190610223929190610230565b5080600081905550505050565b828054600181600116156101000203166002900490600052602060002090601f01602090048101928261026657600085556102ad565b82601f1061027f57803560ff19168380011785556102ad565b828001600101855582156102ad579182015b828111156102ac578235825591602001919060010190610291565b5b5090506102ba91906102be565b5090565b5b808211156102d75760008160009055506001016102bf565b509056fea2646970667358221220ad39d0ba87a27d22bcd55f1cf41fcda21668eb5051a501b6a4caac79c64b0e4764736f6c63430007060033",
  "immutableReferences": {},
  "source": "// SPDX-License-Identifier: MIT\r\n\r\npragma solidity >=0.6.0 <0.8.0;\r\n\r\ncontract StudentStorage {\r\n    // 创建两个变量 username + age\r\n    uint age;\r\n    string username;\r\n    \r\n    // storage 状态变量 存储在链上  \r\n    // memory 临时变量 不上链\r\n    // calldata 存储在内存中 不上链；和memory不同的是，calldata变量不能修改\r\n    // 一般用于函数的参数\r\n     function setData(string calldata _name, uint _age) public {\r\n        username = _name;\r\n        age = _age;\r\n    }\r\n\r\n    // view 视图函数 只访问不修改状态\r\n    // pure 纯函数 不访问 不修改\r\n    function getData() public view returns (string memory, uint) {\r\n        return (username, age);\r\n    }\r\n}",
  "sourcePath": "D:\\Project\\wallet\\web3-demo-code\\contracts\\StudentStorage.sol",
  "compiler": {
    "name": "solc",
    "version": "0.7.6+commit.7338295f.Emscripten.clang"
  },
  "schemaVersion": "3.4.16",
  "updatedAt": "2024-05-28T07:42:07.687Z",
  "networkType": "ethereum",
  "devdoc": {
    "kind": "dev",
    "methods": {},
    "version": 1
  },
  "userdoc": {
    "kind": "user",
    "methods": {},
    "version": 1
  }
}