{
  "contractName": "Token",
  "abi": [
    {
      "inputs": [],
      "stateMutability": "nonpayable",
      "type": "constructor"
    },
    {
      "inputs": [],
      "name": "decimals",
      "outputs": [
        {
          "internalType": "uint256",
          "name": "",
          "type": "uint256"
        }
      ],
      "stateMutability": "view",
      "type": "function",
      "constant": true
    },
    {
      "inputs": [],
      "name": "name",
      "outputs": [
        {
          "internalType": "string",
          "name": "",
          "type": "string"
        }
      ],
      "stateMutability": "view",
      "type": "function",
      "constant": true
    },
    {
      "inputs": [],
      "name": "symbol",
      "outputs": [
        {
          "internalType": "string",
          "name": "",
          "type": "string"
        }
      ],
      "stateMutability": "view",
      "type": "function",
      "constant": true
    },
    {
      "inputs": [],
      "name": "totalSupply",
      "outputs": [
        {
          "internalType": "uint256",
          "name": "",
          "type": "uint256"
        }
      ],
      "stateMutability": "view",
      "type": "function",
      "constant": true
    },
    {
      "inputs": [
        {
          "internalType": "address",
          "name": "_to",
          "type": "address"
        },
        {
          "internalType": "uint256",
          "name": "_value",
          "type": "uint256"
        }
      ],
      "name": "transfer",
      "outputs": [
        {
          "internalType": "bool",
          "name": "success",
          "type": "bool"
        }
      ],
      "stateMutability": "nonpayable",
      "type": "function"
    }
  ],
  "bytecode": "0x60806040526040518060400160405280600581526020017f546f6b656e0000000000000000000000000000000000000000000000000000008152506000908051906020019061004f929190610108565b506040518060400160405280600381526020017f4b575400000000000000000000000000000000000000000000000000000000008152506001908051906020019061009b929190610108565b5060126002553480156100ad57600080fd5b50600254600a0a606402600381905550600354600460003373ffffffffffffffffffffffffffffffffffffffff1673ffffffffffffffffffffffffffffffffffffffff168152602001908152602001600020819055506101b3565b828054600181600116156101000203166002900490600052602060002090601f01602090048101928261013e5760008555610185565b82601f1061015757805160ff1916838001178555610185565b82800160010185558215610185579182015b82811115610184578251825591602001919060010190610169565b5b5090506101929190610196565b5090565b5b808211156101af576000816000905550600101610197565b5090565b6105da806101c26000396000f3fe608060405234801561001057600080fd5b5060043610610074576000357c01000000000000000000000000000000000000000000000000000000009004806306fdde031461007957806318160ddd146100fc578063313ce5671461011a57806395d89b4114610138578063a9059cbb146101bb575b600080fd5b61008161021f565b6040518080602001828103825283818151815260200191508051906020019080838360005b838110156100c15780820151818401526020810190506100a6565b50505050905090810190601f1680156100ee5780820380516001836020036101000a031916815260200191505b509250505060405180910390f35b6101046102bd565b6040518082815260200191505060405180910390f35b6101226102c3565b6040518082815260200191505060405180910390f35b6101406102c9565b6040518080602001828103825283818151815260200191508051906020019080838360005b83811015610180578082015181840152602081019050610165565b50505050905090810190601f1680156101ad5780820380516001836020036101000a031916815260200191505b509250505060405180910390f35b610207600480360360408110156101d157600080fd5b81019080803573ffffffffffffffffffffffffffffffffffffffff16906020019092919080359060200190929190505050610367565b60405180821515815260200191505060405180910390f35b60008054600181600116156101000203166002900480601f0160208091040260200160405190810160405280929190818152602001828054600181600116156101000203166002900480156102b55780601f1061028a576101008083540402835291602001916102b5565b820191906000526020600020905b81548152906001019060200180831161029857829003601f168201915b505050505081565b60035481565b60025481565b60018054600181600116156101000203166002900480601f01602080910402602001604051908101604052809291908181526020018280546001816001161561010002031660029004801561035f5780601f106103345761010080835404028352916020019161035f565b820191906000526020600020905b81548152906001019060200180831161034257829003601f168201915b505050505081565b60006103bb82600460003373ffffffffffffffffffffffffffffffffffffffff1673ffffffffffffffffffffffffffffffffffffffff1681526020019081526020016000205461049990919063ffffffff16565b600460003373ffffffffffffffffffffffffffffffffffffffff1673ffffffffffffffffffffffffffffffffffffffff1681526020019081526020016000208190555061045082600460003373ffffffffffffffffffffffffffffffffffffffff1673ffffffffffffffffffffffffffffffffffffffff1681526020019081526020016000205461051c90919063ffffffff16565b600460008573ffffffffffffffffffffffffffffffffffffffff1673ffffffffffffffffffffffffffffffffffffffff1681526020019081526020016000208190555092915050565b600082821115610511576040517f08c379a000000000000000000000000000000000000000000000000000000000815260040180806020018281038252601e8152602001807f536166654d6174683a207375627472616374696f6e206f766572666c6f77000081525060200191505060405180910390fd5b818303905092915050565b60008082840190508381101561059a576040517f08c379a000000000000000000000000000000000000000000000000000000000815260040180806020018281038252601b8152602001807f536166654d6174683a206164646974696f6e206f766572666c6f77000000000081525060200191505060405180910390fd5b809150509291505056fea26469706673582212205d834e1d9f6cc2a7f3e53b353627bcdf3d43c0bc033dae24614042ca2df7849a64736f6c63430007060033",
  "immutableReferences": {},
  "source": "// SPDX-License-Identifier: GPL-3.0\r\npragma solidity >=0.6.0 <0.8.0;\r\n\r\nimport \"openzeppelin-solidity/contracts/math/safeMath.sol\";\r\n\r\n// https://github.com/ethereum/EIPs/blob/master/EIPS/eip-20.md\r\ncontract Token {\r\n    using SafeMath for uint256;\r\n    string public name = \"Token\";\r\n    string public symbol = \"KWT\";\r\n    uint256 public decimals = 18;\r\n    uint256 public totalSupply;\r\n    // 自动生成getter方法\r\n    \r\n    // mapping\r\n    mapping(address => uint256) balanceof;\r\n\r\n    constructor() {\r\n        totalSupply = 100 * ( 10 ** decimals);\r\n\r\n        balanceof[msg.sender] = totalSupply;\r\n    }\r\n\r\n    function transfer(address _to, uint256 _value) public returns (bool success) {\r\n        balanceof[msg.sender] = balanceof[msg.sender].sub(_value);\r\n        balanceof[_to] = balanceof[msg.sender].add(_value);\r\n    }\r\n}",
  "sourcePath": "D:\\Project\\wallet\\web3-demo-code\\contracts\\Token.sol",
  "compiler": {
    "name": "solc",
    "version": "0.7.6+commit.7338295f.Emscripten.clang"
  },
  "schemaVersion": "3.4.16",
  "updatedAt": "2024-05-28T07:42:08.085Z",
  "networkType": "ethereum",
  "devdoc": {
    "kind": "dev",
    "methods": {},
    "version": 1
  },
  "userdoc": {
    "kind": "user",
    "methods": {},
    "version": 1
  }
}